:100000000C942A000C944F000C944F000C944F0059
:100010000C944F000C944F000C944F000C944F0024
:100020000C944F000C944F000C944F000C944F0014
:100030000C944F000C944F000C944F000C944F0004
:100040000C944F000C944F000C944F000C944F00F4
:100050000C944F0011241FBECFE5D8E0DEBFCDBF0A
:0C0060000E9436000C943400F894FFCF8E
:10006C008B9AA29AA79A8A98B898BC98AF98AA9893
:10007C009398B49B02C0AF9AFCCFB09B02C0AA9AD3
:10008C00F8CF829B02C0939AF4CFAF98AA9893981A
:02009C00F0CFA3
:04009E000C940000BE
:00000001FF
